{
  "_format": "hh-sol-artifact-1",
  "contractName": "SimpleStaking",
  "sourceName": "contracts/SimpleStaking.sol",
  "abi": [
    {
      "inputs": [
        {
          "internalType": "address",
          "name": "_token",
          "type": "address"
        },
        {
          "internalType": "uint256",
          "name": "_apr",
          "type": "uint256"
        }
      ],
      "stateMutability": "nonpayable",
      "type": "constructor"
    },
    {
      "inputs": [
        {
          "internalType": "address",
          "name": "owner",
          "type": "address"
        }
      ],
      "name": "OwnableInvalidOwner",
      "type": "error"
    },
    {
      "inputs": [
        {
          "internalType": "address",
          "name": "account",
          "type": "address"
        }
      ],
      "name": "OwnableUnauthorizedAccount",
      "type": "error"
    },
    {
      "anonymous": false,
      "inputs": [
        {
          "indexed": true,
          "internalType": "address",
          "name": "previousOwner",
          "type": "address"
        },
        {
          "indexed": true,
          "internalType": "address",
          "name": "newOwner",
          "type": "address"
        }
      ],
      "name": "OwnershipTransferred",
      "type": "event"
    },
    {
      "inputs": [],
      "name": "BASE",
      "outputs": [
        {
          "internalType": "uint256",
          "name": "",
          "type": "uint256"
        }
      ],
      "stateMutability": "view",
      "type": "function"
    },
    {
      "inputs": [],
      "name": "apr",
      "outputs": [
        {
          "internalType": "uint256",
          "name": "",
          "type": "uint256"
        }
      ],
      "stateMutability": "view",
      "type": "function"
    },
    {
      "inputs": [],
      "name": "claim",
      "outputs": [],
      "stateMutability": "nonpayable",
      "type": "function"
    },
    {
      "inputs": [],
      "name": "owner",
      "outputs": [
        {
          "internalType": "address",
          "name": "",
          "type": "address"
        }
      ],
      "stateMutability": "view",
      "type": "function"
    },
    {
      "inputs": [
        {
          "internalType": "address",
          "name": "_user",
          "type": "address"
        }
      ],
      "name": "pendingRewards",
      "outputs": [
        {
          "internalType": "uint256",
          "name": "",
          "type": "uint256"
        }
      ],
      "stateMutability": "view",
      "type": "function"
    },
    {
      "inputs": [],
      "name": "renounceOwnership",
      "outputs": [],
      "stateMutability": "nonpayable",
      "type": "function"
    },
    {
      "inputs": [
        {
          "internalType": "uint256",
          "name": "_newAPR",
          "type": "uint256"
        }
      ],
      "name": "setAPR",
      "outputs": [],
      "stateMutability": "nonpayable",
      "type": "function"
    },
    {
      "inputs": [
        {
          "internalType": "uint256",
          "name": "_amount",
          "type": "uint256"
        }
      ],
      "name": "stake",
      "outputs": [],
      "stateMutability": "nonpayable",
      "type": "function"
    },
    {
      "inputs": [
        {
          "internalType": "address",
          "name": "",
          "type": "address"
        }
      ],
      "name": "stakes",
      "outputs": [
        {
          "internalType": "uint256",
          "name": "amount",
          "type": "uint256"
        },
        {
          "internalType": "uint256",
          "name": "rewardDebt",
          "type": "uint256"
        },
        {
          "internalType": "uint256",
          "name": "lastUpdate",
          "type": "uint256"
        }
      ],
      "stateMutability": "view",
      "type": "function"
    },
    {
      "inputs": [],
      "name": "stakingToken",
      "outputs": [
        {
          "internalType": "contract IERC20",
          "name": "",
          "type": "address"
        }
      ],
      "stateMutability": "view",
      "type": "function"
    },
    {
      "inputs": [
        {
          "internalType": "address",
          "name": "newOwner",
          "type": "address"
        }
      ],
      "name": "transferOwnership",
      "outputs": [],
      "stateMutability": "nonpayable",
      "type": "function"
    },
    {
      "inputs": [
        {
          "internalType": "uint256",
          "name": "_amount",
          "type": "uint256"
        }
      ],
      "name": "unstake",
      "outputs": [],
      "stateMutability": "nonpayable",
      "type": "function"
    }
  ],
  "bytecode": "0x60a060405234801561001057600080fd5b5060405161121138038061121183398181016040528101906100329190610254565b33600073ffffffffffffffffffffffffffffffffffffffff168173ffffffffffffffffffffffffffffffffffffffff16036100a55760006040517f1e4fbdf700000000000000000000000000000000000000000000000000000000815260040161009c91906102a3565b60405180910390fd5b6100b4816100f760201b60201c565b508173ffffffffffffffffffffffffffffffffffffffff1660808173ffffffffffffffffffffffffffffffffffffffff16815250508060018190555050506102be565b60008060009054906101000a900473ffffffffffffffffffffffffffffffffffffffff169050816000806101000a81548173ffffffffffffffffffffffffffffffffffffffff021916908373ffffffffffffffffffffffffffffffffffffffff1602179055508173ffffffffffffffffffffffffffffffffffffffff168173ffffffffffffffffffffffffffffffffffffffff167f8be0079c531659141344cd1fd0a4f28419497f9722a3daafe3b4186f6b6457e060405160405180910390a35050565b600080fd5b600073ffffffffffffffffffffffffffffffffffffffff82169050919050565b60006101eb826101c0565b9050919050565b6101fb816101e0565b811461020657600080fd5b50565b600081519050610218816101f2565b92915050565b6000819050919050565b6102318161021e565b811461023c57600080fd5b50565b60008151905061024e81610228565b92915050565b6000806040838503121561026b5761026a6101bb565b5b600061027985828601610209565b925050602061028a8582860161023f565b9150509250929050565b61029d816101e0565b82525050565b60006020820190506102b86000830184610294565b92915050565b608051610f236102ee600039600081816102f9015281816104540152818161051101526106100152610f236000f3fe608060405234801561001057600080fd5b50600436106100b45760003560e01c806372f702f31161007157806372f702f314610169578063854303cf146101875780638da5cb5b146101a3578063a694fc3a146101c1578063ec342ad0146101dd578063f2fde38b146101fb576100b4565b806316934fc4146100b95780632e17de78146100eb57806331d7a262146101075780634e71d92d1461013757806357ded9c914610141578063715018a61461015f575b600080fd5b6100d360048036038101906100ce9190610a05565b610217565b6040516100e293929190610a4b565b60405180910390f35b61010560048036038101906101009190610aae565b610241565b005b610121600480360381019061011c9190610a05565b61039a565b60405161012e9190610adb565b60405180910390f35b61013f6103ac565b005b6101496104f5565b6040516101569190610adb565b60405180910390f35b6101676104fb565b005b61017161050f565b60405161017e9190610b55565b60405180910390f35b6101a1600480360381019061019c9190610aae565b610533565b005b6101ab610545565b6040516101b89190610b7f565b60405180910390f35b6101db60048036038101906101d69190610aae565b61056e565b005b6101e56106ce565b6040516101f29190610adb565b60405180910390f35b61021560048036038101906102109190610a05565b6106d4565b005b60026020528060005260406000206000915090508060000154908060010154908060020154905083565b6000600260003373ffffffffffffffffffffffffffffffffffffffff1673ffffffffffffffffffffffffffffffffffffffff168152602001908152602001600020905081816000015410156102cb576040517f08c379a00000000000000000000000000000000000000000000000000000000081526004016102c290610bf7565b60405180910390fd5b6102d36103ac565b428160020181905550818160000160008282546102f09190610c46565b925050819055507f000000000000000000000000000000000000000000000000000000000000000073ffffffffffffffffffffffffffffffffffffffff1663a9059cbb33846040518363ffffffff1660e01b8152600401610352929190610c7a565b6020604051808303816000875af1158015610371573d6000803e3d6000fd5b505050506040513d601f19601f820116820180604052508101906103959190610cdb565b505050565b60006103a58261075a565b9050919050565b6000600260003373ffffffffffffffffffffffffffffffffffffffff1673ffffffffffffffffffffffffffffffffffffffff168152602001908152602001600020905060006103fa3361075a565b90506000811161043f576040517f08c379a000000000000000000000000000000000000000000000000000000000815260040161043690610d54565b60405180910390fd5b600082600101819055504282600201819055507f000000000000000000000000000000000000000000000000000000000000000073ffffffffffffffffffffffffffffffffffffffff1663a9059cbb33836040518363ffffffff1660e01b81526004016104ad929190610c7a565b6020604051808303816000875af11580156104cc573d6000803e3d6000fd5b505050506040513d601f19601f820116820180604052508101906104f09190610cdb565b505050565b60015481565b61050361084f565b61050d60006108d6565b565b7f000000000000000000000000000000000000000000000000000000000000000081565b61053b61084f565b8060018190555050565b60008060009054906101000a900473ffffffffffffffffffffffffffffffffffffffff16905090565b600081116105b1576040517f08c379a00000000000000000000000000000000000000000000000000000000081526004016105a890610dc0565b60405180910390fd5b6000600260003373ffffffffffffffffffffffffffffffffffffffff1673ffffffffffffffffffffffffffffffffffffffff16815260200190815260200160002090506105fd3361075a565b81600101819055504281600201819055507f000000000000000000000000000000000000000000000000000000000000000073ffffffffffffffffffffffffffffffffffffffff166323b872dd3330856040518463ffffffff1660e01b815260040161066b93929190610de0565b6020604051808303816000875af115801561068a573d6000803e3d6000fd5b505050506040513d601f19601f820116820180604052508101906106ae9190610cdb565b50818160000160008282546106c39190610e17565b925050819055505050565b6103e881565b6106dc61084f565b600073ffffffffffffffffffffffffffffffffffffffff168173ffffffffffffffffffffffffffffffffffffffff160361074e5760006040517f1e4fbdf70000000000000000000000000000000000000000000000000000000081526004016107459190610b7f565b60405180910390fd5b610757816108d6565b50565b600080600260008473ffffffffffffffffffffffffffffffffffffffff1673ffffffffffffffffffffffffffffffffffffffff1681526020019081526020016000206040518060600160405290816000820154815260200160018201548152602001600282015481525050905060008160000151036107dd57600091505061084a565b60008160400151426107ef9190610c46565b905060006103e860015484600001516108089190610e4b565b6108129190610ebc565b905060006301e1338083836108279190610e4b565b6108319190610ebc565b90508360200151816108439190610e17565b9450505050505b919050565b61085761099a565b73ffffffffffffffffffffffffffffffffffffffff16610875610545565b73ffffffffffffffffffffffffffffffffffffffff16146108d45761089861099a565b6040517f118cdaa70000000000000000000000000000000000000000000000000000000081526004016108cb9190610b7f565b60405180910390fd5b565b60008060009054906101000a900473ffffffffffffffffffffffffffffffffffffffff169050816000806101000a81548173ffffffffffffffffffffffffffffffffffffffff021916908373ffffffffffffffffffffffffffffffffffffffff1602179055508173ffffffffffffffffffffffffffffffffffffffff168173ffffffffffffffffffffffffffffffffffffffff167f8be0079c531659141344cd1fd0a4f28419497f9722a3daafe3b4186f6b6457e060405160405180910390a35050565b600033905090565b600080fd5b600073ffffffffffffffffffffffffffffffffffffffff82169050919050565b60006109d2826109a7565b9050919050565b6109e2816109c7565b81146109ed57600080fd5b50565b6000813590506109ff816109d9565b92915050565b600060208284031215610a1b57610a1a6109a2565b5b6000610a29848285016109f0565b91505092915050565b6000819050919050565b610a4581610a32565b82525050565b6000606082019050610a606000830186610a3c565b610a6d6020830185610a3c565b610a7a6040830184610a3c565b949350505050565b610a8b81610a32565b8114610a9657600080fd5b50565b600081359050610aa881610a82565b92915050565b600060208284031215610ac457610ac36109a2565b5b6000610ad284828501610a99565b91505092915050565b6000602082019050610af06000830184610a3c565b92915050565b6000819050919050565b6000610b1b610b16610b11846109a7565b610af6565b6109a7565b9050919050565b6000610b2d82610b00565b9050919050565b6000610b3f82610b22565b9050919050565b610b4f81610b34565b82525050565b6000602082019050610b6a6000830184610b46565b92915050565b610b79816109c7565b82525050565b6000602082019050610b946000830184610b70565b92915050565b600082825260208201905092915050565b7f4e6f7420656e6f756768207374616b6564000000000000000000000000000000600082015250565b6000610be1601183610b9a565b9150610bec82610bab565b602082019050919050565b60006020820190508181036000830152610c1081610bd4565b9050919050565b7f4e487b7100000000000000000000000000000000000000000000000000000000600052601160045260246000fd5b6000610c5182610a32565b9150610c5c83610a32565b9250828203905081811115610c7457610c73610c17565b5b92915050565b6000604082019050610c8f6000830185610b70565b610c9c6020830184610a3c565b9392505050565b60008115159050919050565b610cb881610ca3565b8114610cc357600080fd5b50565b600081519050610cd581610caf565b92915050565b600060208284031215610cf157610cf06109a2565b5b6000610cff84828501610cc6565b91505092915050565b7f4e6f207265776172647300000000000000000000000000000000000000000000600082015250565b6000610d3e600a83610b9a565b9150610d4982610d08565b602082019050919050565b60006020820190508181036000830152610d6d81610d31565b9050919050565b7f5a65726f20616d6f756e74000000000000000000000000000000000000000000600082015250565b6000610daa600b83610b9a565b9150610db582610d74565b602082019050919050565b60006020820190508181036000830152610dd981610d9d565b9050919050565b6000606082019050610df56000830186610b70565b610e026020830185610b70565b610e0f6040830184610a3c565b949350505050565b6000610e2282610a32565b9150610e2d83610a32565b9250828201905080821115610e4557610e44610c17565b5b92915050565b6000610e5682610a32565b9150610e6183610a32565b9250828202610e6f81610a32565b91508282048414831517610e8657610e85610c17565b5b5092915050565b7f4e487b7100000000000000000000000000000000000000000000000000000000600052601260045260246000fd5b6000610ec782610a32565b9150610ed283610a32565b925082610ee257610ee1610e8d565b5b82820490509291505056fea264697066735822122034c09518616dd325df7b150c5ca968043e602d5786995f4ed1114816ff1da07a64736f6c634300081c0033",
  "linkReferences": {},
  "deployedLinkReferences": {}
}