{
  "_format": "hh-sol-artifact-1",
  "contractName": "SimpleStaking",
  "sourceName": "contracts/SimpleStaking.sol",
  "abi": [
    {
      "inputs": [
        {
          "internalType": "address",
          "name": "_token",
          "type": "address"
        },
        {
          "internalType": "uint256",
          "name": "_apr",
          "type": "uint256"
        }
      ],
      "stateMutability": "nonpayable",
      "type": "constructor"
    },
    {
      "inputs": [
        {
          "internalType": "address",
          "name": "owner",
          "type": "address"
        }
      ],
      "name": "OwnableInvalidOwner",
      "type": "error"
    },
    {
      "inputs": [
        {
          "internalType": "address",
          "name": "account",
          "type": "address"
        }
      ],
      "name": "OwnableUnauthorizedAccount",
      "type": "error"
    },
    {
      "anonymous": false,
      "inputs": [
        {
          "indexed": true,
          "internalType": "address",
          "name": "previousOwner",
          "type": "address"
        },
        {
          "indexed": true,
          "internalType": "address",
          "name": "newOwner",
          "type": "address"
        }
      ],
      "name": "OwnershipTransferred",
      "type": "event"
    },
    {
      "inputs": [],
      "name": "BASE",
      "outputs": [
        {
          "internalType": "uint256",
          "name": "",
          "type": "uint256"
        }
      ],
      "stateMutability": "view",
      "type": "function"
    },
    {
      "inputs": [],
      "name": "apr",
      "outputs": [
        {
          "internalType": "uint256",
          "name": "",
          "type": "uint256"
        }
      ],
      "stateMutability": "view",
      "type": "function"
    },
    {
      "inputs": [],
      "name": "claim",
      "outputs": [],
      "stateMutability": "nonpayable",
      "type": "function"
    },
    {
      "inputs": [],
      "name": "owner",
      "outputs": [
        {
          "internalType": "address",
          "name": "",
          "type": "address"
        }
      ],
      "stateMutability": "view",
      "type": "function"
    },
    {
      "inputs": [
        {
          "internalType": "address",
          "name": "_user",
          "type": "address"
        }
      ],
      "name": "pendingRewards",
      "outputs": [
        {
          "internalType": "uint256",
          "name": "",
          "type": "uint256"
        }
      ],
      "stateMutability": "view",
      "type": "function"
    },
    {
      "inputs": [],
      "name": "renounceOwnership",
      "outputs": [],
      "stateMutability": "nonpayable",
      "type": "function"
    },
    {
      "inputs": [
        {
          "internalType": "uint256",
          "name": "_newAPR",
          "type": "uint256"
        }
      ],
      "name": "setAPR",
      "outputs": [],
      "stateMutability": "nonpayable",
      "type": "function"
    },
    {
      "inputs": [
        {
          "internalType": "uint256",
          "name": "_amount",
          "type": "uint256"
        }
      ],
      "name": "stake",
      "outputs": [],
      "stateMutability": "nonpayable",
      "type": "function"
    },
    {
      "inputs": [
        {
          "internalType": "address",
          "name": "_user",
          "type": "address"
        }
      ],
      "name": "stakedBalance",
      "outputs": [
        {
          "internalType": "uint256",
          "name": "",
          "type": "uint256"
        }
      ],
      "stateMutability": "view",
      "type": "function"
    },
    {
      "inputs": [
        {
          "internalType": "address",
          "name": "",
          "type": "address"
        }
      ],
      "name": "stakes",
      "outputs": [
        {
          "internalType": "uint256",
          "name": "amount",
          "type": "uint256"
        },
        {
          "internalType": "uint256",
          "name": "rewardDebt",
          "type": "uint256"
        },
        {
          "internalType": "uint256",
          "name": "lastUpdate",
          "type": "uint256"
        }
      ],
      "stateMutability": "view",
      "type": "function"
    },
    {
      "inputs": [],
      "name": "stakingToken",
      "outputs": [
        {
          "internalType": "contract IERC20",
          "name": "",
          "type": "address"
        }
      ],
      "stateMutability": "view",
      "type": "function"
    },
    {
      "inputs": [
        {
          "internalType": "address",
          "name": "newOwner",
          "type": "address"
        }
      ],
      "name": "transferOwnership",
      "outputs": [],
      "stateMutability": "nonpayable",
      "type": "function"
    },
    {
      "inputs": [
        {
          "internalType": "uint256",
          "name": "_amount",
          "type": "uint256"
        }
      ],
      "name": "unstake",
      "outputs": [],
      "stateMutability": "nonpayable",
      "type": "function"
    }
  ],
  "bytecode": "0x60a060405234801561001057600080fd5b506040516112a83803806112a883398181016040528101906100329190610254565b33600073ffffffffffffffffffffffffffffffffffffffff168173ffffffffffffffffffffffffffffffffffffffff16036100a55760006040517f1e4fbdf700000000000000000000000000000000000000000000000000000000815260040161009c91906102a3565b60405180910390fd5b6100b4816100f760201b60201c565b508173ffffffffffffffffffffffffffffffffffffffff1660808173ffffffffffffffffffffffffffffffffffffffff16815250508060018190555050506102be565b60008060009054906101000a900473ffffffffffffffffffffffffffffffffffffffff169050816000806101000a81548173ffffffffffffffffffffffffffffffffffffffff021916908373ffffffffffffffffffffffffffffffffffffffff1602179055508173ffffffffffffffffffffffffffffffffffffffff168173ffffffffffffffffffffffffffffffffffffffff167f8be0079c531659141344cd1fd0a4f28419497f9722a3daafe3b4186f6b6457e060405160405180910390a35050565b600080fd5b600073ffffffffffffffffffffffffffffffffffffffff82169050919050565b60006101eb826101c0565b9050919050565b6101fb816101e0565b811461020657600080fd5b50565b600081519050610218816101f2565b92915050565b6000819050919050565b6102318161021e565b811461023c57600080fd5b50565b60008151905061024e81610228565b92915050565b6000806040838503121561026b5761026a6101bb565b5b600061027985828601610209565b925050602061028a8582860161023f565b9150509250929050565b61029d816101e0565b82525050565b60006020820190506102b86000830184610294565b92915050565b608051610fba6102ee600039600081816103440152818161049f015281816105a801526106a70152610fba6000f3fe608060405234801561001057600080fd5b50600436106100cf5760003560e01c8063715018a61161008c5780638da5cb5b116100665780638da5cb5b146101ee578063a694fc3a1461020c578063ec342ad014610228578063f2fde38b14610246576100cf565b8063715018a6146101aa57806372f702f3146101b4578063854303cf146101d2576100cf565b806316934fc4146100d45780632e17de781461010657806331d7a262146101225780634e71d92d1461015257806357ded9c91461015c578063602172671461017a575b600080fd5b6100ee60048036038101906100e99190610a9c565b610262565b6040516100fd93929190610ae2565b60405180910390f35b610120600480360381019061011b9190610b45565b61028c565b005b61013c60048036038101906101379190610a9c565b6103e5565b6040516101499190610b72565b60405180910390f35b61015a6103f7565b005b610164610540565b6040516101719190610b72565b60405180910390f35b610194600480360381019061018f9190610a9c565b610546565b6040516101a19190610b72565b60405180910390f35b6101b2610592565b005b6101bc6105a6565b6040516101c99190610bec565b60405180910390f35b6101ec60048036038101906101e79190610b45565b6105ca565b005b6101f66105dc565b6040516102039190610c16565b60405180910390f35b61022660048036038101906102219190610b45565b610605565b005b610230610765565b60405161023d9190610b72565b60405180910390f35b610260600480360381019061025b9190610a9c565b61076b565b005b60026020528060005260406000206000915090508060000154908060010154908060020154905083565b6000600260003373ffffffffffffffffffffffffffffffffffffffff1673ffffffffffffffffffffffffffffffffffffffff16815260200190815260200160002090508181600001541015610316576040517f08c379a000000000000000000000000000000000000000000000000000000000815260040161030d90610c8e565b60405180910390fd5b61031e6103f7565b4281600201819055508181600001600082825461033b9190610cdd565b925050819055507f000000000000000000000000000000000000000000000000000000000000000073ffffffffffffffffffffffffffffffffffffffff1663a9059cbb33846040518363ffffffff1660e01b815260040161039d929190610d11565b6020604051808303816000875af11580156103bc573d6000803e3d6000fd5b505050506040513d601f19601f820116820180604052508101906103e09190610d72565b505050565b60006103f0826107f1565b9050919050565b6000600260003373ffffffffffffffffffffffffffffffffffffffff1673ffffffffffffffffffffffffffffffffffffffff16815260200190815260200160002090506000610445336107f1565b90506000811161048a576040517f08c379a000000000000000000000000000000000000000000000000000000000815260040161048190610deb565b60405180910390fd5b600082600101819055504282600201819055507f000000000000000000000000000000000000000000000000000000000000000073ffffffffffffffffffffffffffffffffffffffff1663a9059cbb33836040518363ffffffff1660e01b81526004016104f8929190610d11565b6020604051808303816000875af1158015610517573d6000803e3d6000fd5b505050506040513d601f19601f8201168201806040525081019061053b9190610d72565b505050565b60015481565b6000600260008373ffffffffffffffffffffffffffffffffffffffff1673ffffffffffffffffffffffffffffffffffffffff168152602001908152602001600020600001549050919050565b61059a6108e6565b6105a4600061096d565b565b7f000000000000000000000000000000000000000000000000000000000000000081565b6105d26108e6565b8060018190555050565b60008060009054906101000a900473ffffffffffffffffffffffffffffffffffffffff16905090565b60008111610648576040517f08c379a000000000000000000000000000000000000000000000000000000000815260040161063f90610e57565b60405180910390fd5b6000600260003373ffffffffffffffffffffffffffffffffffffffff1673ffffffffffffffffffffffffffffffffffffffff1681526020019081526020016000209050610694336107f1565b81600101819055504281600201819055507f000000000000000000000000000000000000000000000000000000000000000073ffffffffffffffffffffffffffffffffffffffff166323b872dd3330856040518463ffffffff1660e01b815260040161070293929190610e77565b6020604051808303816000875af1158015610721573d6000803e3d6000fd5b505050506040513d601f19601f820116820180604052508101906107459190610d72565b508181600001600082825461075a9190610eae565b925050819055505050565b6103e881565b6107736108e6565b600073ffffffffffffffffffffffffffffffffffffffff168173ffffffffffffffffffffffffffffffffffffffff16036107e55760006040517f1e4fbdf70000000000000000000000000000000000000000000000000000000081526004016107dc9190610c16565b60405180910390fd5b6107ee8161096d565b50565b600080600260008473ffffffffffffffffffffffffffffffffffffffff1673ffffffffffffffffffffffffffffffffffffffff1681526020019081526020016000206040518060600160405290816000820154815260200160018201548152602001600282015481525050905060008160000151036108745760009150506108e1565b60008160400151426108869190610cdd565b905060006103e8600154846000015161089f9190610ee2565b6108a99190610f53565b905060006301e1338083836108be9190610ee2565b6108c89190610f53565b90508360200151816108da9190610eae565b9450505050505b919050565b6108ee610a31565b73ffffffffffffffffffffffffffffffffffffffff1661090c6105dc565b73ffffffffffffffffffffffffffffffffffffffff161461096b5761092f610a31565b6040517f118cdaa70000000000000000000000000000000000000000000000000000000081526004016109629190610c16565b60405180910390fd5b565b60008060009054906101000a900473ffffffffffffffffffffffffffffffffffffffff169050816000806101000a81548173ffffffffffffffffffffffffffffffffffffffff021916908373ffffffffffffffffffffffffffffffffffffffff1602179055508173ffffffffffffffffffffffffffffffffffffffff168173ffffffffffffffffffffffffffffffffffffffff167f8be0079c531659141344cd1fd0a4f28419497f9722a3daafe3b4186f6b6457e060405160405180910390a35050565b600033905090565b600080fd5b600073ffffffffffffffffffffffffffffffffffffffff82169050919050565b6000610a6982610a3e565b9050919050565b610a7981610a5e565b8114610a8457600080fd5b50565b600081359050610a9681610a70565b92915050565b600060208284031215610ab257610ab1610a39565b5b6000610ac084828501610a87565b91505092915050565b6000819050919050565b610adc81610ac9565b82525050565b6000606082019050610af76000830186610ad3565b610b046020830185610ad3565b610b116040830184610ad3565b949350505050565b610b2281610ac9565b8114610b2d57600080fd5b50565b600081359050610b3f81610b19565b92915050565b600060208284031215610b5b57610b5a610a39565b5b6000610b6984828501610b30565b91505092915050565b6000602082019050610b876000830184610ad3565b92915050565b6000819050919050565b6000610bb2610bad610ba884610a3e565b610b8d565b610a3e565b9050919050565b6000610bc482610b97565b9050919050565b6000610bd682610bb9565b9050919050565b610be681610bcb565b82525050565b6000602082019050610c016000830184610bdd565b92915050565b610c1081610a5e565b82525050565b6000602082019050610c2b6000830184610c07565b92915050565b600082825260208201905092915050565b7f4e6f7420656e6f756768207374616b6564000000000000000000000000000000600082015250565b6000610c78601183610c31565b9150610c8382610c42565b602082019050919050565b60006020820190508181036000830152610ca781610c6b565b9050919050565b7f4e487b7100000000000000000000000000000000000000000000000000000000600052601160045260246000fd5b6000610ce882610ac9565b9150610cf383610ac9565b9250828203905081811115610d0b57610d0a610cae565b5b92915050565b6000604082019050610d266000830185610c07565b610d336020830184610ad3565b9392505050565b60008115159050919050565b610d4f81610d3a565b8114610d5a57600080fd5b50565b600081519050610d6c81610d46565b92915050565b600060208284031215610d8857610d87610a39565b5b6000610d9684828501610d5d565b91505092915050565b7f4e6f207265776172647300000000000000000000000000000000000000000000600082015250565b6000610dd5600a83610c31565b9150610de082610d9f565b602082019050919050565b60006020820190508181036000830152610e0481610dc8565b9050919050565b7f5a65726f20616d6f756e74000000000000000000000000000000000000000000600082015250565b6000610e41600b83610c31565b9150610e4c82610e0b565b602082019050919050565b60006020820190508181036000830152610e7081610e34565b9050919050565b6000606082019050610e8c6000830186610c07565b610e996020830185610c07565b610ea66040830184610ad3565b949350505050565b6000610eb982610ac9565b9150610ec483610ac9565b9250828201905080821115610edc57610edb610cae565b5b92915050565b6000610eed82610ac9565b9150610ef883610ac9565b9250828202610f0681610ac9565b91508282048414831517610f1d57610f1c610cae565b5b5092915050565b7f4e487b7100000000000000000000000000000000000000000000000000000000600052601260045260246000fd5b6000610f5e82610ac9565b9150610f6983610ac9565b925082610f7957610f78610f24565b5b82820490509291505056fea264697066735822122015bbc8c787a055a149dbc26681bf6fc98b675200d5aaad68f6cba849f60e9c6864736f6c634300081c0033",
  "linkReferences": {},
  "deployedLinkReferences": {}
}